{
  "contractName": "ERC20Metadata",
  "abi": [
    {
      "inputs": [
        {
          "name": "tokenURI_",
          "type": "string"
        }
      ],
      "payable": false,
      "stateMutability": "nonpayable",
      "type": "constructor"
    },
    {
      "constant": true,
      "inputs": [],
      "name": "tokenURI",
      "outputs": [
        {
          "name": "",
          "type": "string"
        }
      ],
      "payable": false,
      "stateMutability": "view",
      "type": "function"
    }
  ],
  "bytecode": "0x608060405234801561001057600080fd5b506040516102f03803806102f08339810180604052602081101561003357600080fd5b81019080805164010000000081111561004b57600080fd5b8201602081018481111561005e57600080fd5b815164010000000081118282018710171561007857600080fd5b50509291905050506100988161009e640100000000026401000000009004565b50610150565b80516100b19060009060208401906100b5565b5050565b828054600181600116156101000203166002900490600052602060002090601f016020900481019282601f106100f657805160ff1916838001178555610123565b82800160010185558215610123579182015b82811115610123578251825591602001919060010190610108565b5061012f929150610133565b5090565b61014d91905b8082111561012f5760008155600101610139565b90565b6101918061015f6000396000f3fe6080604052600436106100405763ffffffff7c01000000000000000000000000000000000000000000000000000000006000350416633c130d908114610045575b600080fd5b34801561005157600080fd5b5061005a6100cf565b6040805160208082528351818301528351919283929083019185019080838360005b8381101561009457818101518382015260200161007c565b50505050905090810190601f1680156100c15780820380516001836020036101000a031916815260200191505b509250505060405180910390f35b60008054604080516020601f600260001961010060018816150201909516949094049384018190048102820181019092528281526060939092909183018282801561015b5780601f106101305761010080835404028352916020019161015b565b820191906000526020600020905b81548152906001019060200180831161013e57829003601f168201915b505050505090509056fea165627a7a723058207e414e9525296e6958c232491cd7cc2b69c5b35b3c75bb5ce94a77ab2cab97dc0029",
  "source": "pragma solidity >=0.5.0 <0.6.0;\n\nimport \"../../token/ERC20/IERC20.sol\";\n\n/**\n * @title ERC-1047 Token Metadata\n * @dev See https://eips.ethereum.org/EIPS/eip-1046\n * @dev tokenURI must respond with a URI that implements https://eips.ethereum.org/EIPS/eip-1047\n */\ncontract ERC20Metadata {\n    string private _tokenURI;\n\n    constructor (string memory tokenURI_) public {\n        _setTokenURI(tokenURI_);\n    }\n\n    function tokenURI() external view returns (string memory) {\n        return _tokenURI;\n    }\n\n    function _setTokenURI(string memory tokenURI_) internal {\n        _tokenURI = tokenURI_;\n    }\n}\n",
  "sourcePath": "/Users/kevin/GitHub/tool-dapploy-nodejs/temp/contracts/drafts/ERC1046/ERC20Metadata.sol",
  "compiler": {
    "name": "solc",
    "version": "0.5.0+commit.1d4f565a.Emscripten.clang"
  },
  "schemaVersion": "3.0.6",
  "updatedAt": "2019-04-08T18:19:55.615Z",
  "devdoc": {
    "details": "See https://eips.ethereum.org/EIPS/eip-1046tokenURI must respond with a URI that implements https://eips.ethereum.org/EIPS/eip-1047",
    "methods": {},
    "title": "ERC-1047 Token Metadata"
  },
  "userdoc": {
    "methods": {}
  }
}