{
  "contractName": "ERC721Burnable",
  "abi": [
    {
      "constant": true,
      "inputs": [
        {
          "name": "interfaceId",
          "type": "bytes4"
        }
      ],
      "name": "supportsInterface",
      "outputs": [
        {
          "name": "",
          "type": "bool"
        }
      ],
      "payable": false,
      "stateMutability": "view",
      "type": "function"
    },
    {
      "constant": true,
      "inputs": [
        {
          "name": "tokenId",
          "type": "uint256"
        }
      ],
      "name": "getApproved",
      "outputs": [
        {
          "name": "",
          "type": "address"
        }
      ],
      "payable": false,
      "stateMutability": "view",
      "type": "function"
    },
    {
      "constant": false,
      "inputs": [
        {
          "name": "to",
          "type": "address"
        },
        {
          "name": "tokenId",
          "type": "uint256"
        }
      ],
      "name": "approve",
      "outputs": [],
      "payable": false,
      "stateMutability": "nonpayable",
      "type": "function"
    },
    {
      "constant": false,
      "inputs": [
        {
          "name": "from",
          "type": "address"
        },
        {
          "name": "to",
          "type": "address"
        },
        {
          "name": "tokenId",
          "type": "uint256"
        }
      ],
      "name": "transferFrom",
      "outputs": [],
      "payable": false,
      "stateMutability": "nonpayable",
      "type": "function"
    },
    {
      "constant": false,
      "inputs": [
        {
          "name": "from",
          "type": "address"
        },
        {
          "name": "to",
          "type": "address"
        },
        {
          "name": "tokenId",
          "type": "uint256"
        }
      ],
      "name": "safeTransferFrom",
      "outputs": [],
      "payable": false,
      "stateMutability": "nonpayable",
      "type": "function"
    },
    {
      "constant": true,
      "inputs": [
        {
          "name": "tokenId",
          "type": "uint256"
        }
      ],
      "name": "ownerOf",
      "outputs": [
        {
          "name": "",
          "type": "address"
        }
      ],
      "payable": false,
      "stateMutability": "view",
      "type": "function"
    },
    {
      "constant": true,
      "inputs": [
        {
          "name": "owner",
          "type": "address"
        }
      ],
      "name": "balanceOf",
      "outputs": [
        {
          "name": "",
          "type": "uint256"
        }
      ],
      "payable": false,
      "stateMutability": "view",
      "type": "function"
    },
    {
      "constant": false,
      "inputs": [
        {
          "name": "to",
          "type": "address"
        },
        {
          "name": "approved",
          "type": "bool"
        }
      ],
      "name": "setApprovalForAll",
      "outputs": [],
      "payable": false,
      "stateMutability": "nonpayable",
      "type": "function"
    },
    {
      "constant": false,
      "inputs": [
        {
          "name": "from",
          "type": "address"
        },
        {
          "name": "to",
          "type": "address"
        },
        {
          "name": "tokenId",
          "type": "uint256"
        },
        {
          "name": "_data",
          "type": "bytes"
        }
      ],
      "name": "safeTransferFrom",
      "outputs": [],
      "payable": false,
      "stateMutability": "nonpayable",
      "type": "function"
    },
    {
      "constant": true,
      "inputs": [
        {
          "name": "owner",
          "type": "address"
        },
        {
          "name": "operator",
          "type": "address"
        }
      ],
      "name": "isApprovedForAll",
      "outputs": [
        {
          "name": "",
          "type": "bool"
        }
      ],
      "payable": false,
      "stateMutability": "view",
      "type": "function"
    },
    {
      "anonymous": false,
      "inputs": [
        {
          "indexed": true,
          "name": "from",
          "type": "address"
        },
        {
          "indexed": true,
          "name": "to",
          "type": "address"
        },
        {
          "indexed": true,
          "name": "tokenId",
          "type": "uint256"
        }
      ],
      "name": "Transfer",
      "type": "event"
    },
    {
      "anonymous": false,
      "inputs": [
        {
          "indexed": true,
          "name": "owner",
          "type": "address"
        },
        {
          "indexed": true,
          "name": "approved",
          "type": "address"
        },
        {
          "indexed": true,
          "name": "tokenId",
          "type": "uint256"
        }
      ],
      "name": "Approval",
      "type": "event"
    },
    {
      "anonymous": false,
      "inputs": [
        {
          "indexed": true,
          "name": "owner",
          "type": "address"
        },
        {
          "indexed": true,
          "name": "operator",
          "type": "address"
        },
        {
          "indexed": false,
          "name": "approved",
          "type": "bool"
        }
      ],
      "name": "ApprovalForAll",
      "type": "event"
    },
    {
      "constant": false,
      "inputs": [
        {
          "name": "tokenId",
          "type": "uint256"
        }
      ],
      "name": "burn",
      "outputs": [],
      "payable": false,
      "stateMutability": "nonpayable",
      "type": "function"
    }
  ],
  "bytecode": "0x60806040526100367f01ffc9a70000000000000000000000000000000000000000000000000000000064010000000061006d810204565b6100687f80ac58cd0000000000000000000000000000000000000000000000000000000064010000000061006d810204565b6100d9565b7fffffffff00000000000000000000000000000000000000000000000000000000808216141561009c57600080fd5b7fffffffff00000000000000000000000000000000000000000000000000000000166000908152602081905260409020805460ff19166001179055565b610b13806100e86000396000f3fe6080604052600436106100ae5763ffffffff7c010000000000000000000000000000000000000000000000000000000060003504166301ffc9a781146100b3578063081812fc14610110578063095ea7b31461015657806323b872dd1461019157806342842e0e146101d457806342966c68146102175780636352211e1461024157806370a082311461026b578063a22cb465146102b0578063b88d4fde146102eb578063e985e9c5146103be575b600080fd5b3480156100bf57600080fd5b506100fc600480360360208110156100d657600080fd5b50357bffffffffffffffffffffffffffffffffffffffffffffffffffffffff19166103f9565b604080519115158252519081900360200190f35b34801561011c57600080fd5b5061013a6004803603602081101561013357600080fd5b503561042d565b60408051600160a060020a039092168252519081900360200190f35b34801561016257600080fd5b5061018f6004803603604081101561017957600080fd5b50600160a060020a03813516906020013561045f565b005b34801561019d57600080fd5b5061018f600480360360608110156101b457600080fd5b50600160a060020a03813581169160208101359091169060400135610515565b3480156101e057600080fd5b5061018f600480360360608110156101f757600080fd5b50600160a060020a0381358116916020810135909116906040013561053a565b34801561022357600080fd5b5061018f6004803603602081101561023a57600080fd5b5035610556565b34801561024d57600080fd5b5061013a6004803603602081101561026457600080fd5b5035610577565b34801561027757600080fd5b5061029e6004803603602081101561028e57600080fd5b5035600160a060020a03166105a1565b60408051918252519081900360200190f35b3480156102bc57600080fd5b5061018f600480360360408110156102d357600080fd5b50600160a060020a03813516906020013515156105d9565b3480156102f757600080fd5b5061018f6004803603608081101561030e57600080fd5b600160a060020a0382358116926020810135909116916040820135919081019060808101606082013564010000000081111561034957600080fd5b82018360208201111561035b57600080fd5b8035906020019184600183028401116401000000008311171561037d57600080fd5b91908080601f01602080910402602001604051908101604052809392919081815260200183838082843760009201919091525092955061065d945050505050565b3480156103ca57600080fd5b506100fc600480360360408110156103e157600080fd5b50600160a060020a0381358116916020013516610685565b7bffffffffffffffffffffffffffffffffffffffffffffffffffffffff191660009081526020819052604090205460ff1690565b6000610438826106b3565b151561044357600080fd5b50600090815260026020526040902054600160a060020a031690565b600061046a82610577565b9050600160a060020a03838116908216141561048557600080fd5b33600160a060020a03821614806104a157506104a18133610685565b15156104ac57600080fd5b600082815260026020526040808220805473ffffffffffffffffffffffffffffffffffffffff1916600160a060020a0387811691821790925591518593918516917f8c5be1e5ebec7d5bd14f71427d1e84f3dd0314c0f7b2291e5b200ac8c7c3b92591a4505050565b61051f33826106d0565b151561052a57600080fd5b61053583838361072f565b505050565b610535838383602060405190810160405280600081525061065d565b61056033826106d0565b151561056b57600080fd5b6105748161081e565b50565b600081815260016020526040812054600160a060020a031680151561059b57600080fd5b92915050565b6000600160a060020a03821615156105b857600080fd5b600160a060020a038216600090815260036020526040902061059b90610830565b600160a060020a0382163314156105ef57600080fd5b336000818152600460209081526040808320600160a060020a03871680855290835292819020805460ff1916861515908117909155815190815290519293927f17307eab39ab6107e8899845ad3d59bd9653f200f220920489ca2b5937696c31929181900390910190a35050565b610668848484610515565b61067484848484610834565b151561067f57600080fd5b50505050565b600160a060020a03918216600090815260046020908152604080832093909416825291909152205460ff1690565b600090815260016020526040902054600160a060020a0316151590565b6000806106dc83610577565b905080600160a060020a031684600160a060020a03161480610717575083600160a060020a031661070c8461042d565b600160a060020a0316145b8061072757506107278185610685565b949350505050565b82600160a060020a031661074282610577565b600160a060020a03161461075557600080fd5b600160a060020a038216151561076a57600080fd5b610773816109b0565b600160a060020a0383166000908152600360205260409020610794906109f8565b600160a060020a03821660009081526003602052604090206107b590610a0f565b600081815260016020526040808220805473ffffffffffffffffffffffffffffffffffffffff1916600160a060020a0386811691821790925591518493918716917fddf252ad1be2c89b69c2b068fc378daa952ba7f163c4a11628f55a4df523b3ef91a4505050565b61057461082a82610577565b82610a18565b5490565b600061084884600160a060020a0316610aca565b151561085657506001610727565b6040517f150b7a020000000000000000000000000000000000000000000000000000000081523360048201818152600160a060020a03888116602485015260448401879052608060648501908152865160848601528651600095928a169463150b7a029490938c938b938b939260a4019060208501908083838e5b838110156108e95781810151838201526020016108d1565b50505050905090810190601f1680156109165780820380516001836020036101000a031916815260200191505b5095505050505050602060405180830381600087803b15801561093857600080fd5b505af115801561094c573d6000803e3d6000fd5b505050506040513d602081101561096257600080fd5b50517bffffffffffffffffffffffffffffffffffffffffffffffffffffffff19167f150b7a020000000000000000000000000000000000000000000000000000000014915050949350505050565b600081815260026020526040902054600160a060020a031615610574576000908152600260205260409020805473ffffffffffffffffffffffffffffffffffffffff19169055565b8054610a0b90600163ffffffff610ad216565b9055565b80546001019055565b81600160a060020a0316610a2b82610577565b600160a060020a031614610a3e57600080fd5b610a47816109b0565b600160a060020a0382166000908152600360205260409020610a68906109f8565b600081815260016020526040808220805473ffffffffffffffffffffffffffffffffffffffff1916905551829190600160a060020a038516907fddf252ad1be2c89b69c2b068fc378daa952ba7f163c4a11628f55a4df523b3ef908390a45050565b6000903b1190565b600082821115610ae157600080fd5b5090039056fea165627a7a7230582002aa125fe72a355f3612751e7ff5c0d8abbaf0b5c126d9d5fc275fcdf45722d20029",
  "source": "pragma solidity >=0.5.0 <0.6.0;\n\nimport \"./ERC721.sol\";\n\n/**\n * @title ERC721 Burnable Token\n * @dev ERC721 Token that can be irreversibly burned (destroyed).\n */\ncontract ERC721Burnable is ERC721 {\n    /**\n     * @dev Burns a specific ERC721 token.\n     * @param tokenId uint256 id of the ERC721 token to be burned.\n     */\n    function burn(uint256 tokenId) public {\n        require(_isApprovedOrOwner(msg.sender, tokenId));\n        _burn(tokenId);\n    }\n}\n",
  "sourcePath": "/Users/kevin/GitHub/tool-dapploy-nodejs/temp/contracts/token/ERC721/ERC721Burnable.sol",
  "compiler": {
    "name": "solc",
    "version": "0.5.0+commit.1d4f565a.Emscripten.clang"
  },
  "schemaVersion": "3.0.6",
  "updatedAt": "2019-04-08T18:19:55.627Z",
  "devdoc": {
    "details": "ERC721 Token that can be irreversibly burned (destroyed).",
    "methods": {
      "approve(address,uint256)": {
        "details": "Approves another address to transfer the given token ID The zero address indicates there is no approved address. There can only be one approved address per token at a given time. Can only be called by the token owner or an approved operator.",
        "params": {
          "to": "address to be approved for the given token ID",
          "tokenId": "uint256 ID of the token to be approved"
        }
      },
      "balanceOf(address)": {
        "details": "Gets the balance of the specified address",
        "params": {
          "owner": "address to query the balance of"
        },
        "return": "uint256 representing the amount owned by the passed address"
      },
      "burn(uint256)": {
        "details": "Burns a specific ERC721 token.",
        "params": {
          "tokenId": "uint256 id of the ERC721 token to be burned."
        }
      },
      "getApproved(uint256)": {
        "details": "Gets the approved address for a token ID, or zero if no address set Reverts if the token ID does not exist.",
        "params": {
          "tokenId": "uint256 ID of the token to query the approval of"
        },
        "return": "address currently approved for the given token ID"
      },
      "isApprovedForAll(address,address)": {
        "details": "Tells whether an operator is approved by a given owner",
        "params": {
          "operator": "operator address which you want to query the approval of",
          "owner": "owner address which you want to query the approval of"
        },
        "return": "bool whether the given operator is approved by the given owner"
      },
      "ownerOf(uint256)": {
        "details": "Gets the owner of the specified token ID",
        "params": {
          "tokenId": "uint256 ID of the token to query the owner of"
        },
        "return": "address currently marked as the owner of the given token ID"
      },
      "safeTransferFrom(address,address,uint256)": {
        "details": "Safely transfers the ownership of a given token ID to another address If the target address is a contract, it must implement `onERC721Received`, which is called upon a safe transfer, and return the magic value `bytes4(keccak256(\"onERC721Received(address,address,uint256,bytes)\"))`; otherwise, the transfer is reverted. Requires the msg.sender to be the owner, approved, or operator",
        "params": {
          "from": "current owner of the token",
          "to": "address to receive the ownership of the given token ID",
          "tokenId": "uint256 ID of the token to be transferred"
        }
      },
      "safeTransferFrom(address,address,uint256,bytes)": {
        "details": "Safely transfers the ownership of a given token ID to another address If the target address is a contract, it must implement `onERC721Received`, which is called upon a safe transfer, and return the magic value `bytes4(keccak256(\"onERC721Received(address,address,uint256,bytes)\"))`; otherwise, the transfer is reverted. Requires the msg.sender to be the owner, approved, or operator",
        "params": {
          "_data": "bytes data to send along with a safe transfer check",
          "from": "current owner of the token",
          "to": "address to receive the ownership of the given token ID",
          "tokenId": "uint256 ID of the token to be transferred"
        }
      },
      "setApprovalForAll(address,bool)": {
        "details": "Sets or unsets the approval of a given operator An operator is allowed to transfer all tokens of the sender on their behalf",
        "params": {
          "approved": "representing the status of the approval to be set",
          "to": "operator address to set the approval"
        }
      },
      "supportsInterface(bytes4)": {
        "details": "implement supportsInterface(bytes4) using a lookup table"
      },
      "transferFrom(address,address,uint256)": {
        "details": "Transfers the ownership of a given token ID to another address Usage of this method is discouraged, use `safeTransferFrom` whenever possible Requires the msg.sender to be the owner, approved, or operator",
        "params": {
          "from": "current owner of the token",
          "to": "address to receive the ownership of the given token ID",
          "tokenId": "uint256 ID of the token to be transferred"
        }
      }
    },
    "title": "ERC721 Burnable Token"
  },
  "userdoc": {
    "methods": {}
  }
}